S0100000534B55335F312E302E7372656300
S2140000000C948E230C946BE30C9496E30C94C1E34F
S2140000100C94ECE30C9417E40C9442E40C946DE41A
S2140000200C9498E40C94BF230C94BF230C94BF2329
S2140000300C945E630C9468650C94BF230C94BF23E9
S2140000400C94BF230C94B4630C94BF230C94BF236E
S2140000500C94BF230C94BF230C94BF230C944AD754
S2140000600C94BF230C94BF230C945DD40C94BF2334
S2140000700C94BF230C94BF230C94BF230C94BF2373
S2140000800C94BF230C94BF230C94BF230C94BF2363
S2140000900C9429630C94B3D40C94BF230C9468E896
S2140000A00C94BF230C94BF230C94BF230C94BF2343
S2140000B00C94BF230C94BF230C94BF230C94BF2333
S2140000C00C94BF230C94BF230C94BF230C94BF2323
S2140000D00C94BF230C94BF230C94BF230C94BF2313
S2140000E00C94BF23B732B732ED32B732D532B732BF
S2140000F0D532B732B732D532B732D532C432C6323D
S214000100C932CB32C932CD32C932CF32D132C932FE
S214000110D332AB33AD33AF33B633B833BA33BC3385
S214000120BE33C033C233C433C733D333D733DB33E2
S214000130E433E833EC33F033F433F833FC33003491
S2140001400434F734D8352F351F36503541367235DE
S21400015094356336B6358336CF340837CD372837EF
S2140001601238493733386A378B375438AC377438D7
S214000170D236BC397C3ADC39BF3AFC39DF3A1C3A15
S2140001803C3AFF3A5C3A1E3B9439A43B5E3CC33B88
S2140001909F3CE23BBE3C013C203CDD3C3F3C033DFB
S2140001A0873B814634464E467E4681467E4681469D
S2140001B081467E4681467E468146956C9B6CA46C45
S2140001C0B16CC06CCD6CDA6CE86CEF6CFA6C769344
S2140001D06C938A937D937A93429364933793E79CC8
S2140001E0F79D1A9E349E679E7F9E969EAB9E87D8EE
S2140001F08AD879D87DD883D8C1D88ED892D898D8BE
S2140002009CD8A0D8A6D8AAD8AED8C1D8B4D8B8D8C2
S214000210BCD8E6E1D3E1D5E1D7E1D9E1DBE1DDE128
S214000220DFE145E30FE317E323E330E351E35EE367
S21400023007634236B79BD8A71A39685618AEBAABCA
S214000240558C1D3CB7CC5763BD6DEDFD753EF6175E
S2140002507231BF000000803F08000000BE922449B3
S214000260123EABAAAA2ABECDCCCC4C3E00000080E3
S214000270BEABAAAAAA3E00000000BF000000803F56
S2140002800000000000084178D3BB4387D1133D1916
S2140002900E3CC3BD4282AD2B3E68EC8276BED98F43
S2140002A0E1A93E4C80EFFFBE01C4FF7F3F00000087
S2140002B00000466C7573685F52756E6E696E6720D7
S2140002C0363A2000466C7573685F52756E6E696EBE
S2140002D06720333A2000466C7573685F52756E6E01
S2140002E0696E6720323A2000466C7573685F5275F7
S2140002F06E6E696E6720303A2000416C6C20766125
S2140003006C766573207375636365737366756C6C62
S21400031079204F4E2F4F4646004575726F20466532
S21400032065646261636B206661696C2F4E6F742032
S214000330726563656976656420616E7920646174B0
S214000340612066726F6D204575726F2076616C76DF
S214000350652030004575726F20466565646261638E
S2140003606B206661696C2F4E6F74207265636569D9
S21400037076656420616E7920646174612066726FB0
S2140003806D204575726F2076616C7665203100456C
S21400039075726F20466565646261636B206661698D
S2140003A06C004944204E6F74206D61746368656408
S2140003B020776974682076616C7665207768696353
S2140003C068206973207265706C6965640045757293
S2140003D06F2076616C76652049442077686963688B
S2140003E02069732053656E74203A004575726F203D
S2140003F076616C76652072782064617461203A209C
S2140004000053656E64204F6E2F6F666620436F6DD7
S2140004106D616E6420746F204555524F2076616C76
S214000420766520310043757272656E742076616C55
S2140004307665206E756D6265722000576972656C10
S2140004406573732056616C7665206E6F2E200049AA
S214000450727269676174696E6720706C6F74206E63
S2140004606F203A2000200076616C7665206C6973F8
S21400047074203A2000416C6C2076616C766573209F
S2140004807375636365737366756C6C79204F4E2F56
S2140004904F4646004575726F204665656462616327
S2140004A06B206661696C2F4E6F7420726563656998
S2140004B076656420616E7920646174612066726F6F
S2140004C06D204575726F2076616C7665203000452C
S2140004D075726F20466565646261636B206661694C
S2140004E06C2F4E6F74207265636569766564206153
S2140004F06E7920646174612066726F6D2045757236
S2140005006F2076616C76652031005F6549525249EE
S214000510475F535441545F4555524F5F46454544E7
S2140005204241434B2031004575726F204665656435
S2140005306261636B206661696C005F65495252496F
S214000540475F535441545F4555524F5F46454544B7
S2140005504241434B2030004944204E6F74206D6169
S214000560746368656420776974682076616C766564
S214000570207768696368206973207265706C6965A6
S21400058064004575726F2076616C7665204944205C
S21400059077686963682069732053656E74203A0033
S2140005A04575726F2076616C76652072782064617E
S2140005B07461203A200053656E64204F6E2F6F667C
S2140005C06620436F6D6D616E6420746F20455552D2
S2140005D04F2076616C766520310043757272656EC9
S2140005E0742076616C7665206E756D62657220008B
S2140005F0576972656C6573732056616C7665206EFC
S2140006006F2E20005461726765745F506C6F745F64
S2140006104E756D20706C6F74206E6F203A2000202F
S2140006200076616C7665206C697374203A200076DB
S214000630616C7665206661696C20746F20676976E8
S2140006406520666565646261636B284E6F74206C16
S214000650697374656E696E67292E2E2E0076616C3E
S2140006607665206964206E6F74206D6174636828F7
S2140006706265666F726520737461727474290066B1
S21400068061696C20746F206F6666207468652076DA
S214000690616C7665287761732065616C6965722088
S2140006A06F6E6E290054657374206F6E6C792054DB
S2140006B0582064617461203A200053656E64204FB0
S2140006C06E2F6F666620436F6D6D616E6420746F6B
S2140006D0204555524F2076616C7665203B00436876
S2140006E065636B2076616C76652074686174206142
S2140006F06C6C2076616C76657320617265204F465F
S21400070046206F72206E6F740076616C7665206688
S21400071061696C20746F206F66662077686963680D
S2140007202077617320616C7265616479206F6E005A
S21400073076616C7665206964206E6F74206D6174D6
S2140007406368286265666F726520737461727429C7
S214000750006661696C20746F206F66662074686539
S2140007602076616C7665287761732065616C6965B3
S21400077072206F6E290054657374206F6E6C79203A
S21400078054582064617461203A200053656E6420DA
S2140007904F6E2F6F666620436F6D6D616E642074BA
S2140007A06F204555524F2076616C76652000436871
S2140007B065636B2076616C76652074686174206171
S2140007C06C6C2076616C76657320617265204F468E
S2140007D046206F72206E6F740076616C7665206CB2
S2140007E069737420656E746572200076616C766538
S2140007F0206C697374206973203A200076616C76E9
S21400080065206C69737420656E746572200076616D
S2140008106C7665206C697374206973203A200077C3
S2140008206972656C6573732070756D702035200075
S214000830776972656C6573732070756D70203320F0
S21400084000776972656C6573732070756D702035FE
S2140008502000776972656C6573732070756D702003
S2140008603420232323232323232323232323232345
S214000870232323232323232323232323007769727D
S214000880656C6573732070756D7020332E2E2E2E5A
S2140008902E2E2E2E2E2E2E2E2E2E2E2E2E2E2E2E73
S2140008A02C2C2C2C2C2C2C200053656C656374652A
S2140008B06420776972656C6573732070756D70203F
S2140008C03E200053656C65637465642076616C76C3
S2140008D065206E756D62657220776972656C6573EA
S2140008E0732070756D70203E2000747269676765AE
S2140008F0722074696D652073657400636865636B48
S2140009005F747275655F636F6E646974696F6E009D
S2140009107363203120656E7465722031322E302E5E
S214000920302E34007363203120656E74657220317A
S214000930352E33007363203120656E746572203166
S214000940352E32007363203120656E746572203157
S214000950352E31007363203120656E746572203148
S21400096035007363203120656E7465722031340063
S2140009707363203120656E746572203133007363B3
S214000980203120656E746572203132007363203129
S21400099020656E7465722031322E302E302E320075
S2140009A07363203120656E7465722031322E302ECE
S2140009B0302E31007363203120656E7465722031ED
S2140009C0322E3000736320656E74657220323300F9
S2140009D0736320656E7465722032320069727269C4
S2140009E0676174696E672064617465207570616400
S2140009F0746520352E322F2F2F2F2F2F2F2F2F2F8E
S214000A002F2F2F2F2F2F2F2F2F2F2F2F2F2F2F2FF1
S214000A102F2F2F2F2F2F2F2F2F2F2F2F2F2F2F2FE1
S214000A202F005F735363686564756C65732E53742B
S214000A3061727465645F4461746520757061647486
S214000A406520352E312F2F2F2F2F2F2F2F2F2F2F83
S214000A502F2F2F2F2F2F2F2F2F2F2F2F2F2F2F2FA1
S214000A602F2F2F2F2F2F2F2F2F2F2F2F2F2F2F2F91
S214000A700069727269676174696E67206461746583
S214000A802075706164746520352F2F2F2F2F2F2F20
S214000A902F2F2F2F2F2F2F2F2F2F2F2F2F2F2F2F61
S214000AA02F2F2F2F2F2F2F2F2F2F2F2F2F2F2F2F51
S214000AB02F2F2F2F005F735363686564756C657303
S214000AC02E537461727465645F446174652075703A
S214000AD06164746520342E312F2F2F2F2F2F2F2F48
S214000AE02F2F2F2F2F2F2F2F2F2F2F2F2F2F2F2F11
S214000AF02F2F2F2F2F2F2F2F2F2F2F2F2F2F2F2F01
S214000B002F2F2F005F735363686564756C65732EB3
S214000B10537461727465645F4461746520757061B6
S214000B2064746520342F2F2F2F2F2F2F2F2F2F2F2A
S214000B302F2F2F2F2F2F2F2F2F2F2F2F2F2F2F2FC0
S214000B402F2F2F2F2F2F2F2F2F2F2F2F2F2F2F2FB0
S214000B5000736320656E7465722033302E312E313B
S214000B6000736320656E7465722031312E322E302C
S214000B702E3200736320656E7465722031312E311B
S214000B802E302E3100736320656E7465722031310D
S214000B902E312E302E302E300069727269676174E5
S214000BA0696E672064617465207570616474652081
S214000BB0352F2F2F2F2F2F2F2F2F2F2F2F2F2F2F3A
S214000BC02F2F2F2F2F2F2F2F2F2F2F2F2F2F2F2F30
S214000BD02F2F2F2F2F2F2F2F2F2F2F2F005F7353B7
S214000BE063686564756C65732E53746172746564AE
S214000BF05F446174652075706164746520342F2FBE
S214000C002F2F2F2F2F2F2F2F2F2F2F2F2F2F2F2FEF
S214000C102F2F2F2F2F2F2F2F2F2F2F2F2F2F2F2FDF
S214000C202F2F2F2F2F2F2F2F2F0043757272656EA9
S214000C30742064617465203A20005265717569728B
S214000C4065642064617465203A2000646961797384
S214000C5020696E2062657465776565656E202E2E48
S214000C602E2E2E2E2E2E2E2E2E2E2E3A2000437573
S214000C707272656E74206461746520323A20004397
S214000C80757272656E74206461746520313A200056
S214000C90446F5F4E6F745F5265706561745F536337
S214000CA0686564756C652032202323232323232361
S214000CB023232323232323232323232323232323FF
S214000CC02323232323232300446F5F4E6F745F5236
S214000CD065706561745F5363686564756C65203123
S214000CE02E312023232323232323232323232323B9
S214000CF023232323232323232323232323232323BF
S214000D002300446F5F4E6F745F5265706561745F59
S214000D105363686564756C65203120232323232381
S214000D20232323232323232323232323232323238E
S214000D3023232323232323232300697272696761F5
S214000D4074696E672064617465207570616474658B
S214000D502031342F2F2F2F2F2F2F2F2F2F2F2F2FA6
S214000D602F2F2F2F2F2F2F2F2F2F2F2F2F2F2F2F8E
S214000D702F2F2F2F2F2F2F2F2F2F2F2F2F2F006D6F
S214000D8079203134005F735363686564756C6573EE
S214000D902E46697273745F5363686564756C655F2D
S214000DA04972726967617465645F44617465203472
S214000DB02F2F2F2F203A006D792039006D7920389B
S214000DC0006D792037005F735363686564756C65E2
S214000DD0732E46697273745F5363686564756C65D9
S214000DE05F4972726967617465645F446174652007
S214000DF0312F2F2F2F203A006D7920362E32006D9E
S214000E007920362E31006D792036006D7920350038
S214000E105F735363686564756C65732E4669727399
S214000E20745F5363686564756C655F497272696761
S214000E30617465645F4461746520332F2F2F2F2003
S214000E403A006D792034006D792033004261636B7F
S214000E50207570207363686564756C65203A00526F
S214000E60756E6E696E67207363686564756C652061
S214000E703A006D792032006D792031006D7920308E
S214000E800069727269676174696E6720646174656F
S214000E90207570616474652031342F2F2F2F2F2F0B
S214000EA02F2F2F2F2F2F2F2F2F2F2F2F2F2F2F2F4D
S214000EB02F2F2F2F2F2F2F2F2F2F2F2F2F2F2F2F3D
S214000EC02F2F2F2F2F0052756E6E696E67206C695C
S214000ED07374206D6F6E7468200052756E6E696E46
S214000EE067206C697374206461746520006D7920D6
S214000EF0313400626C6F77657220676574732032D8
S214000F002E31203A2000626C6F7765722067657418
S214000F107320312E31203A200074616E6B206E757E
S214000F206D626572206765747320746F206F6666E5
S214000F3020736166656C790074616E6B206E756DEA
S214000F40626572206C69737400416C6C2076616C0B
S214000F50766573207375636365737366756C6C79F9
S214000F60204F4E2F4F4646004575726F20466565EA
S214000F70646261636B206661696C2F4E6F742072C9
S214000F806563656976656420616E79206461746165
S214000F902066726F6D204575726F2076616C76657F
S214000FA02030004575726F20466565646261636B2C
S214000FB0206661696C2F4E6F742072656365697672
S214000FC0656420616E7920646174612066726F6D5D
S214000FD0204575726F2076616C7665203100457508
S214000FE0726F20466565646261636B206661696C3A
S214000FF0004944204E6F74206D61746368656420F8
S214001000776974682076616C7665207768696368AE
S214001010206973207265706C696564004575726F2F
S2140010202076616C7665204944207768696368207D
S21400103069732053656E74203A004575726F20768A
S214001040616C76652072782064617461203A2000B5
S21400105053656E64204F6E2F6F666620436F6D6D0E
S214001060616E6420746F204555524F2076616C7611
S2140010706520310043757272656E742076616C76F9
S21400108065206E756D6265722000576972656C65C5
S21400109073732056616C7665206E6F2E20002000DC
S2140010A0646F7365722070756D702076616C7665FE
S2140010B0206C697374203A200074616E6B20746F24
S2140010C02073656E64207363686564756C65204F75
S2140010D04E203A200074616E6B20746F2073656E2C
S2140010E064207363686564756C65204F666620319E
S2140010F0203A200074616E6B20746F2073656E64F6
S214001100207363686564756C65204F6666203020C2
S2140011103A2000416C6C2076616C7665732073759E
S214001120636365737366756C6C79204F4E2F4F46FC
S21400113046004575726F20466565646261636B2084
S2140011406661696C2F4E6F7420726563656976659B
S2140011506420616E7920646174612066726F6D2010
S2140011604575726F2076616C766520300045757225
S2140011706F20466565646261636B206661696C2FEB
S2140011804E6F7420726563656976656420616E795A
S21400119020646174612066726F6D204575726F20E1
S2140011A076616C76652031004575726F2046656500
S2140011B0646261636B206661696C004944204E6F0F
S2140011C074206D617463686564207769746820763E
S2140011D0616C76652077686963682069732072653C
S2140011E0706C696564004575726F2076616C766513
S2140011F02049442077686963682069732053656EC8
S21400120074203A004575726F2076616C76652072A0
S214001210782064617461203A200053656E64204F24
S2140012206E2F6F666620436F6D6D616E6420746FFF
S214001230204555524F2076616C7665203100437507
S2140012407272656E742076616C7665206E756D625E
S21400125065722000576972656C6573732056616C01
S2140012607665206E6F2E2000200066657274696CAD
S214001270697A65722074616E6B2076616C76652083
S2140012806C697374203A200066657274696C697ABA
S21400129065722074616E6B206E756D626572203AA1
S2140012A0200066657274696C697A65722074616E76
S2140012B06B206E756D626572206973206C65737342
S2140012C0207468616E20313030203A200046657206
S2140012D074696C697A65725F54616E6B5F4D6F6E90
S2140012E069746F72696E672031203A200046657215
S2140012F074696C697A65725F54616E6B5F4D6F6E70
S21400130069746F72696E67203A2000736320656E99
S2140013107465722035392E31005363686564756CC8
S21400132065722067657473206F6666203131203AD7
S2140013302000736320656E74657220363200736316
S21400134020656E74657220363100736320656E7496
S214001350657220363000736320656E7465722035C2
S2140013603900736320656E746572203538007363C8
S21400137020656E74657220353500736320656E7463
S214001380657220353000736320656E746572203494
S2140013903900736320656E7465722034340073639D
S2140013A020656E74657220333900736320656E7431
S2140013B0657220333800736320656E74657220335F
S2140013C03700736320656E74657220333200736372
S2140013D020656E74657220323700736320656E7404
S2140013E0657220323600736320656E746572203134
S2140013F03700736320656E74657220313600736340
S21400140020656E74657220372E3100736320656E1A
S21400141074657220362E312E2E2E2E2E2E2E2E2E29
S2140014202E2E2E2E2E2E2E2E2E2E2E2E2E2E2E2ED7
S2140014302E00736320656E74657220362E302E2E55
S2140014402E2E2E2E2E2E2E2E2E2E2E2E2E2E2E2EB7
S2140014502E2E2E2E2E2E2E2E00736320656E746575
S214001460722031312E322E3100736320656E746522
S214001470722031312E3200736320656E74657220DF
S21400148031312E31005F735363686564756C657324
S2140014902E46697273745F5363686564756C655F26
S2140014A04972726967617465645F4461746520326D
S2140014B02F2F2F2F203A00736320656E74657220DD
S2140014C0313100736320656E7465722031300073AD
S2140014D06320656E746572203900736320656E74D0
S2140014E0657220382E2E2E2E2E2E2E2E2E2E2E2EA0
S2140014F02E2E2E2E2E2E2E2E2E2E2E2E2E2E2E0035
S214001500736320656E74657220372E2E2E2E2E2E57
S2140015102E2E2E2E2E2E2E2E2E2E2E2E2E2E2E2EE6
S2140015202E2E2E2E2E2E2E2E00736320656E7465A4
S2140015307220362E2E2E2E2E2E2E2E2E2E2E2E2E88
S2140015402E2E2E2E2E2E00736320656E746572204E
S214001550352E2E2E2E2E2E2E2E2E2E2E2E2E2E2E9F
S2140015602E2E2E2E00736320656E74657220342E28
S2140015702E2E2E2E2E2E2E2E2E2E2E2E2E2E2E2E86
S2140015802E005F735363686564756C65732E4669D9
S2140015907273745F5363686564756C655F497272D5
S2140015A06967617465645F4461746520302F2F2F0E
S2140015B02F203A00736320656E7465722031310007
S2140015C05F735363686564756C65732E46697273E2
S2140015D0745F5363686564756C655F4972726967AA
S2140015E0617465645F4461746520302E302E302F40
S2140015F02F2F2F203A005F735363686564756C6500
S214001600732E46697273745F5363686564756C65A0
S2140016105F4972726967617465645F4461746520CE
S214001620302E302F2F2F2F203A005F7353636865BC
S21400163064756C65732E46697273745F5363686570
S21400164064756C655F4972726967617465645F444E
S21400165061746520302E2F2F2F2F203A0064617979
S21400166020696E206274772031312E3100646179F2
S21400167020696E206274772031302E3100646179E3
S21400168020696E2062747720392E310064617920DB
S214001690696E2062747720382E3100646179206983
S2140016A06E2062747720392E310064617920696E6D
S2140016B02062747720380064617920696E20627435
S2140016C07720392E310064617920696E2062747744
S2140016D020380064617920696E2062747720392E84
S2140016E0310064617920696E2062747720382E316B
S2140016F00064617920696E2062747720372E31008D
S21400170064617920696E2062747720362E31006419
S214001710617920696E2062747720352E310064610D
S2140017207920696E2062747720342E3100646179E6
S21400173020696E2062747720332E31006461792030
S214001740696E2062747720322E31006461792069D8
S2140017506E2062747720332E310064617920696EC2
S2140017602062747720322E310064617920696E2001
S21400177062747720332E310064617920696E2062AE
S214001780747720322E310064617920696E2062748D
S2140017907720332E310064617920696E2062747779
S2140017A020322E310064617920696E2062747720C1
S2140017B0332E310064617920696E2062747720329E
S2140017C02E310064617920696E2062747720332E92
S2140017D0310064617920696E2062747720322E3180
S2140017E00064617920696E2062747720332E3100A0
S2140017F064617920696E2062747720322E3100642D
S214001800617920696E2062747720312E31004E6F28
S214001810206F66206461797320696E20626574208B
S214001820313A200064617920696E20627477203135
S214001830310064617920696E20627477203130004F
S21400184064617920696E206274772039006461795A
S21400185020696E2062747720380064617920696E92
S2140018602062747720390064617920696E20627482
S2140018707720380064617920696E20627477203999
S2140018800064617920696E20627477203800646194
S2140018907920696E20627477203900646179206946
S2140018A06E2062747720380064617920696E206249
S2140018B0747720370064617920696E20627477201F
S2140018C0360064617920696E206274772035006482
S2140018D0617920696E206274772034006461792013
S2140018E0696E2062747720330064617920696E2007
S2140018F062747720320064617920696E20627477A2
S21400190020330064617920696E206274772032008B
S21400191064617920696E206274772033006461798F
S21400192020696E2062747720320064617920696EC7
S2140019302062747720330064617920696E206274B7
S2140019407720320064617920696E206274772033D4
S2140019500064617920696E206274772032006461C9
S2140019607920696E2062747720330064617920697B
S2140019706E2062747720320064617920696E20627E
S214001980747720330064617920696E206274772052
S214001990320064617920696E206274772031004ECF
S2140019A06F206F66206461797320696E20626574AB
S2140019B0203A200064617920696E20627477207373
S2140019C0746172746564006C617374206D6F6E74FC
S2140019D068203A20006C61737420646174653A2054
S2140019E00079656172203A20006D6F6E7468203A47
S2140019F0200064617465203A200044617973206990
S214001A006E206265747765656E203A2000646179A1
S214001A1020696E2062747720313100646179206914
S214001A206E206274772031300064617920696E2000
S214001A3062747720390064617920696E2062747759
S214001A4020380064617920696E206274772039003E
S214001A5064617920696E2062747720380064617949
S214001A6020696E2062747720390064617920696E7F
S214001A702062747720380064617920696E20627471
S214001A807720390064617920696E20627477203887
S214001A900064617920696E20627477203700646183
S214001AA07920696E20627477203600646179206937
S214001AB06E2062747720350064617920696E20623A
S214001AC0747720340064617920696E206274772010
S214001AD0330064617920696E206274772032006476
S214001AE0617920696E206274772033006461792002
S214001AF0696E2062747720320064617920696E20F6
S214001B0062747720330064617920696E206274778E
S214001B1020320064617920696E2062747720330079
S214001B2064617920696E206274772032006461797E
S214001B3020696E2062747720330064617920696EB4
S214001B402062747720320064617920696E206274A6
S214001B507720330064617920696E206274772032C2
S214001B600064617920696E206274772033006461B6
S214001B707920696E2062747720320064617920696A
S214001B806E2062747720310064617920696E20626D
S214001B9074772031310064617920696E2062747731
S214001BA02031300064617920696E206274772039B4
S214001BB00064617920696E20627477203800646161
S214001BC07920696E20627477203900646179206913
S214001BD06E2062747720380064617920696E206216
S214001BE0747720390064617920696E2062747720EA
S214001BF0380064617920696E206274772039006449
S214001C00617920696E2062747720380064617920DB
S214001C10696E2062747720370064617920696E20CF
S214001C2062747720360064617920696E206274776A
S214001C3020350064617920696E2062747720340054
S214001C4064617920696E206274772033006461795C
S214001C5020696E2062747720320064617920696E94
S214001C602062747720330064617920696E20627484
S214001C707720320064617920696E206274772033A1
S214001C800064617920696E20627477203200646196
S214001C907920696E20627477203300646179206948
S214001CA06E2062747720320064617920696E20624B
S214001CB0747720330064617920696E20627477201F
S214001CC0320064617920696E206274772033006484
S214001CD0617920696E206274772032006461792011
S214001CE0696E2062747720330064617920696E2003
S214001CF062747720320064617920696E206274779E
S214001D0020310069727269676174696E67206D6F51
S214001D106E7468203A200069727269676174696E31
S214001D20672064617465203A200079656172203A04
S214001D3020006D6F6E7468203A2000646174652020
S214001D403A20007363205F735363686564756C653F
S214001D50732E54656D705F4D6F6E746800736320EC
S214001D605F735363686564756C65732E54656D7038
S214001D705F64617465007363206D616B65206461E8
S214001D8074650069727269676174696E6720646160
S214001D9074652075706164746520312F2F2F2F2F86
S214001DA02F2F2F2F2F2F2F2F2F2F2F2F2F2F2F2F3E
S214001DB02F2F2F2F2F2F2F2F2F2F2F2F2F2F2F2F2E
S214001DC02F2F2F2F2F2F00574952454C4553532066
S214001DD050554D50204441544120524543494556A4
S214001DE045440041434B302053454E4420544F2039
S214001DF056414C564520005F654555524F5F42415F
S214001E0054544552595F4C4F5720312000776C2070
S214001E1070756D7020747269676765722030303037
S214001E2030303030303030303030303030303000DD
S214001E30666F676765723A2076616C7665206661C4
S214001E40756C74206F636375726520706C65617362
S214001E5065207475726E206F6666207468652070E3
S214001E60756D70005F654555524F5F42415454454D
S214001E7052595F4C4F5700776C2070756D70207408
S214001E8072696767657220313131313131313131F4
S214001E9031313131313131313131310076616C7669
S214001EA065206661756C74206F636375726520705B
S214001EB06C65617365207475726E206F666620743B
S214001EC068652070756D70004555524F205041432F
S214001ED04B4554204953204E4F54204150504C49B6
S214001EE04341424C45004575726F207374617475AA
S214001EF073203A20004575726F206F6E6C696E65B0
S214001F002F6F66666C696E65203A200042617474B5
S214001F10657279206C6576656C203A2000446174A1
S214001F20612072656376642046726F6D2045757217
S214001F306F203A200064656661756C7420636F6D6F
S214001F406D616E6420006C6F7720626174746572D8
S214001F5079206661756C74006E6F7420616E7920EE
S214001F60706C6F7420697320697272696761746936
S214001F706E67005F654E4F5F4641554C5420005FCC
S214001F80654555524F5F56414C56455F4641554C48
S214001F90545F44415441004555524F2044415441FA
S214001FA0205245434945564544004154453000417A
S214001FB0542B4346554E3D312C31006661696C20EA
S214001FC0746F20636F6E6E6563742067736D2F4742
S214001FD0505253206E6574776F726B00537563634F
S214001FE07320436F6E6E656374656420746F20475C
S214001FF0505253206E6574776F726B0041544530B3
S2140020000041542B4346554E3D312C310046616904
S2140020106C20746F20436F6E6E6563742047505259
S214002020530043616E277420676574206F70656186
S21400203072746F72204E616D65006A696F00416947
S2140020407274656C00566F6461666F6E6500436FF0
S2140020506E6E656374656420746F2067736D2F47BA
S214002060505253206E6574776F726B2030006D7916
S2140020702079656172203A20006D79206D6F6E744C
S21400208068203A20006D792064617465203A20004B
S21400209041542B43434C4B3F0041542B434E54502A
S2140020A00041542B434E54503D22696E2E706F6F84
S2140020B06C2E6E74702E6F7267222C323200415472
S2140020C02B43545A523D310041542B43545A553DEC
S2140020D03100202050554D50204F464620200020ED
S2140020E0202050554D50204F4E20200020202020EC
S2140020F02020495252494741544544202020202060
S21400210000204E4F20504C4F5420495320474554F2
S21400211054494E4720002020202020202020202028
S21400212020202020202020202020002020202020CA
S21400213020202020202020202020202020202000BA
S214002140204E4F20504C4F54204144444544205983
S214002150455421200020202020204D414E55414C42
S214002160204D4F44452020202000202020202054B1
S214002170494D4552204D4F44452020202020002028
S21400218020205343484544554C4552204D4F444526
S214002190202020002020202020202020202020205A
S2140021A02020202020202020004441544120494E59
S2140021B0495449414C4953494E470020202020208D
S2140021C0202020202020202020202020202020002A
S2140021D02020202020205448414E4B20594F552087
S2140021E0202020200020202020202020202020200A
S2140021F020202020202020202000434F4E4E454304
S21400220054454420544F20534552564552200020F2
S21400221020202020202020202020202020202020B9
S2140022202020200020204E4554574F524B20534527
S2140022304C454354454420200020202020202020C8
S2140022402020202020202020202020202000534551
S21400225041524348494E4720464F52204E45542E41
S2140022602E2E00202020202020202020202020206D
S2140022702020202020202000524547495354455214
S214002280454420544F2053455256455200202020A6
S2140022902020202020202020202020202020202039
S2140022A020002020202020524547495354455249BB
S2140022B04E472020202000202020202020202020E4
S2140022C0202020202020202020202000434F4E4E7B
S2140022D0454354494E4720544F2053455256455285
S2140022E0002020202020504C45415345205741498E
S2140022F0542020202000544F504943204D41544341
S2140023004800656E746572203100636865636B20F3
S2140023106E6F7420436F6E6E656374656420746FB1
S214002320206D71747400636865636B20436F6E6E16
S214002330656374656420746F206D71747400415415
S2140023402B434D515454434F4E4E4543543F00414A
S214002350542B434D51545453544152540041542B22
S214002360434D51545452454C3D300041542B434D3F
S214002370515454444953433D302C31323000535568
S2140023804220535543434553530041542B4346552F
S2140023904E3D3100212121212153554343455353BE
S2140023A046554C4C5920434F4E4E454354454420C9
S2140023B0544F204750525321212121210041542BB4
S2140023C04353504E3F0041542B43475245473F002E
S2140023D041542B43475245473D310041542B434718
S2140023E05245473F0041542B43475245473D310035
S2140023F041542B435245473F0041542B43524547D7
S2140024003D310041542B435245473F0041542B4336
S2140024105245473D310041542B434E4D503D3338D5
S2140024200041542B434D45453D300041542B495007
S2140024305245583D39363030004154004353512000
S2140024405245544555524E2030200041542B43539C
S214002450510053454E5420737563630053454E54E4
S2140024602057414954494E47006C6F7261206461A1
S21400247074612073656E64206C656E203A20004798
S214002480534D204E4F5420494E49544941544544DB
S2140024900047534D20494E49544941544544004C49
S2140024A04F5241204E4F5420494E495449415445BD
S2140024B044004C4F524120494E49544941544544EA
S2140024C00053454E5345204954204F555400202074
S2140024D020202020202020202020202020202020F7
S2140024E02020002020202020202020202020202007
S2140024F0202020202020200020204656203A20534E
S2140025004B55335F312E302E322E30200056414C44
S2140025105645204E4F203A20004578747261205070
S2140025206C6F74204E756D6265722E3A2000646181
S214002530746120736176696E6720696E20656570C8
S214002540726F6D2000657874726120706C6F7420F5
S2140025503A2000636865636B2073696D206D6500C3
S21400256041542B4350494E3F00415445300041549E
S2140025700041542B4350494E3F00415445300041E2
S214002580542B4346554E3D312C31007068617365BF
S2140025902069732074686572652032200070686157
S2140025A07365206973207468657265203120007039
S2140025B068617365206973206E6F74207468657235
S2140025C06520312000706861736520697320746827
S2140025D065726520007068617365206973206E6F90
S2140025E074207468657265200050756D70204C69A3
S2140025F06E65204661756C740050756D70204C6970
S2140026006E65204661756C74200050756D702044B0
S21400261072792052756E0050756D70204472792064
S21400262052756E200050756D70204F7665726C6125
S2140026306F6465640050756D70204F7665726C61CE
S2140026406F6465642000576972656C65737320500B
S214002650756D70204661756C74206F637575726554
S2140026602E2E2E2E2E2E2E2E2E2E2E2E2000507558
S2140026706D702043616C6962726174696F6E206967
S2140026807320646F6E650056414C5645204E4F20B1
S2140026903A20004578747261206E6F7420506C6F1B
S2140026A0742052756E2054696D6572203A2000457C
S2140026B07874726120506C6F742052756E20546965
S2140026C06D6572203A2000457874726120506C6FF8
S2140026D074204E756D626572203A200047534D2077
S2140026E0414E44204D5154542057494C4C204E4F97
S2140026F05420574F524B004E4F5420524547495393
S21400270054455220414E4420414C534F204D4F4497
S214002710554C45204E4F5420574F524B2C20504C72
S2140027204541534520434845434B20544845204D9A
S2140027304F44554C4520414E442052455354415237
S21400274054205448452044455649434500506C653E
S21400275061736520496E736572742053696D2043FA
S214002760617264005275626C65206973206E6F74C6
S214002770205265676973746572656420546F2053D0
S21400278065766572005275626C6520697320616CAF
S21400279072656164792052656769737465726564F1
S2140027A020546F205365766572005F7353756273AD
S2140027B063726962655F546F7069632E5275626CEE
S2140027C0655F4575726F5F56616C76655F536574BD
S2140027D0206661696C00415445300041542B4346E5
S2140027E0554E3D312C31004661696C20546F206394
S2140027F06F6E6E65637420746865207365727665A7
S2140028007200616C6C20746F706963206E6F742048
S2140028107375627363726962656400616C6C2074C0
S2140028206F706963207375627363726962656400B2
S214002830436F6E6E656374656420546F20736572B3
S2140028407665720054727920746F20636F6E6E65C1
S21400285063742074686520736572766572004154EF
S2140028602B514D54434C4F5345204E4F5420434C10
S2140028704F5345200041542B514D54434C4F534524
S2140028800041542B514D54434C4F53453D3000535B
S214002890696D206973206E6F7420746865726500B8
S2140028A041544530005275626C6520636F6E7472D9
S2140028B06F6C6C65722069732072656769737465E6
S2140028C07265640077616974207265676973746500
S2140028D072696E6720737461747573203A200046BF
S2140028E061696C20746F2050696E6720736572761C
S2140028F065720050696E6720746F20736572766526
S21400290072004661696C20746F2050696E67207390
S214002910657276657220300050696E6720746F208D
S2140029207365727665722030004461797320696E33
S214002930206265747765656E203A20004E4F4D49DB
S2140029404E414C2043555252454E54203A20007773
S2140029506C20312070756D702074726967676572BF
S2140029602035353535353535353535353535353527
S2140029703535353535353500416C6C2076616C76ED
S2140029806573207375636365737366756C6C792005
S2140029904F4E2F4F4646004575726F20466565645C
S2140029A06261636B206661696C2F4E6F742072657E
S2140029B063656976656420616E7920646174612060
S2140029C066726F6D204575726F2076616C76652035
S2140029D030004575726F20466565646261636B20E2
S2140029E06661696C2F4E6F742072656365697665E3
S2140029F06420616E7920646174612066726F6D2058
S214002A004575726F2076616C76652031004575726B
S214002A106F20466565646261636B206661696C0061
S214002A204944204E6F74206D617463686564207736
S214002A306974682076616C766520776869636820BB
S214002A406973207265706C696564004575726F20E5
S214002A5076616C76652049442077686963682069EA
S214002A60732053656E74203A004575726F20766148
S214002A706C76652072782064617461203A20005379
S214002A80656E64204F6E2F6F666620436F6D6D61B6
S214002A906E6420746F204555524F2076616C7665C3
S214002AA020310043757272656E742076616C7665AF
S214002AB0206E756D6265722000576972656C65736D
S214002AC0732056616C7665206E6F2E20006C6173E5
S214002AD07420706C6F74206E6F203A200020006C9B
S214002AE061737420706C6F74207676616C766520E6
S214002AF06C697374203A20004575726F2076616C9D
S214002B007665204944207768696368206973205396
S214002B10656E74203A00576972656C657373205051
S214002B20756D702072782064617461203A200053BD
S214002B30656E64204F6E2F6F666620436F6D6D6105
S214002B406E6420746F20776972656C6573732050AD
S214002B50756D70203100576972656C6573732070EF
S214002B60756D70206E6F2E2000776972656C6573C8
S214002B70732070756D7020617661696C61626C653A
S214002B8020373A2000776972656C6573732070751C
S214002B906D7020617661696C61626C6520363A20E2
S214002BA000576972656C6573732050756D702046AA
S214002BB06565646261636B206661696C005F655081
S214002BC0554D505F4F525F454C454354524943491B
S214002BD054595F52454C41544544005F6550554D2D
S214002BE0505F4F464600576972656C657373205098
S214002BF0756D7020466565646261636B2066616909
S214002C006C005F6550554D505F4F525F454C4543D5
S214002C10545249434954595F52454C415445440027
S214002C205F6550554D505F4F4E00776972656C6515
S214002C3073732070756D7020617661696C61626C6B
S214002C406520343A2000776972656C65737320706E
S214002C50756D7020617661696C61626C6520342EDA
S214002C60313A20004944204E6F74206D61746368C9
S214002C70656420776974682070756D702077686960
S214002C806368206973207265706C6965642034001F
S214002C90776972656C6573732070756D70207661E8
S214002CA06C766520494420776869636820697320DC
S214002CB053656E74203A00576972656C65737320AD
S214002CC050756D702072782064617461203A20001F
S214002CD0776972656C6573732070756D70206176A8
S214002CE061696C61626C6520313A200053656E64E0
S214002CF0204F6E2F6F666620436F6D6D616E642089
S214002D00746F20776972656C6573732050756D708B
S214002D10203100576972656C6573732070756D702D
S214002D20206E6F2E2000776C20312070756D70201D
S214002D3074726967676572203434343434343434DA
S214002D40343434343434343434343434343434343E
S214002D503434343400776C20312070756D702074F4
S214002D6072696767657220333333333333333333F3
S214002D703333333333333333333333333333330051
S214002D80416C6C2076616C76657320737563636541
S214002D90737366756C6C79204F4E2F4F4646004510
S214002DA075726F20466565646261636B2066616953
S214002DB06C2F4E6F7420726563656976656420615A
S214002DC06E7920646174612066726F6D204575723D
S214002DD06F2076616C76652030004575726F2046F0
S214002DE06565646261636B206661696C2F4E6F7403
S214002DF020726563656976656420616E792064611A
S214002E0074612066726F6D204575726F2076616CF6
S214002E1076652031004575726F204665656462618F
S214002E20636B206661696C004944204E6F74206DA8
S214002E3061746368656420776974682076616C766F
S214002E4065207768696368206973207265706C69AD
S214002E506564004575726F2076616C76652049441E
S214002E602077686963682069732053656E74203A1A
S214002E70004575726F2076616C76652072782064E6
S214002E80617461203A200053656E64204F6E2F6F88
S214002E90666620436F6D6D616E6420746F204555C5
S214002EA0524F2076616C76652031004375727265EC
S214002EB06E742076616C7665206E756D6265722024
S214002EC000576972656C6573732056616C76652071
S214002ED06E6F2E200049727269676174696E672092
S214002EE0457874726120706C6F74206E6F203A2083
S214002EF000200076616C7665206C697374203A2039
S214002F0000457874726120706C6F74206661696C1D
S214002F107320746F2053746F70004578747261204C
S214002F20706C6F742053746F7073004578747261A0
S214002F3020706C6F74206661696C20746F20537407
S214002F406F707320666F67676572206261636B20BF
S214002F50757000457874726120706C6F74205374BD
S214002F606F707320666F67676572206261636B209F
S214002F70757000776C2070756D7020747269676765
S214002F8065722034343434343434343434343434A1
S214002F9034343434343434340054727920746F202A
S214002FA073746F702045787472610065787472610E
S214002FB020706C6F74206661696C7320746F206F6C
S214002FC06E00457874726120506C6F74204F4E000E
S214002FD0776C2070756D70207472696767657220F3
S214002FE033333333333333333333333333333333AC
S214002FF0333333330054727920746F205374617204
S2140030007420657874726120706C6F7400666F67E8
S2140030106765723A206661756C74206F63637572BB
S2140030206500706C6F740074696D6500706C6F7409
S2140030300074696D65006D656469756D0070537424
S2140030406174757300705374617475730070537493
S2140030506174757300457874726120506C6F7420CB
S21400306054696D657220466220726573656E6420D1
S2140030700073746174757300737461747573007390
S214003080746174757300737461747573007374611E
S2140030907475730073746174757300704E6F006F8F
S2140030A06E6520746F75636820666565646261632B
S2140030B06B20726573656E64200074687265655F68
S2140030C070686173650070756D705F6E756D007306
S2140030D0635F72656D61696E5F74696D65007363C9
S2140030E05F696E6465780073635F72656D61696EB3
S2140030F05F74696D650073635F696E6465780073FD
S214003100635F72656D61696E5F74696D6500736398
S2140031105F696E64657800706C6F7400706C6F74B5
S2140031200063757272656E745472616E73666F7248
S2140031306D6572006D6F64650070537461747573AD
S2140031400070537461747573007053746174757392
S21400315000737461747573007374617475730073AF
S214003160746174757300737461747573007374613D
S214003170747573006F6E6520746F756368206F6E6C
S2140031802E2E2E2E2E2E2E2E2E2E2E2E2E2E2E2E5A
S2140031902E2E2E2E2E00737461747573006F6E655E
S2140031A020746F756368206F66662E2E2E2E2E2E68
S2140031B02E2E2E2E2E2E2E2E2E2E2E2E2E00704EF6
S2140031C06F006F6E6520746F756368206665656452
S2140031D06261636B00706C6F740074696D6500707B
S2140031E06C6F740074696D65006D656469756D005B
S2140031F070537461747573007053746174757300E2
S21400320070537461747573007053746174757300D1
S214003210457874726120506C6F742054696D6572C5
S21400322020466200636F646573005F655055425FB9
S2140032304555524F5F56414C56455F4441544100F8
S21400324076616C76654F70656E00764261740076C6
S214003250616C7665537461747573005F6550554292
S2140032605F4555524F5F56414C56455F4441544169
S2140032700076426174006C696768740068756D69F1
S214003280646974790074656D7065726174757265D1
S21400329000736F696C5F74656D7000736D340073D6
S2140032A06D3300736D3200736D31007061636B6552
S2140032B0745F6964005F655055425F4C4952415FD8
S2140032C04E4F44455F4441544100636F646573004C
S2140032D0706C6F7400706C6F740074696D65007448
S2140032E0696D65006D656469756D00705374617411
S2140032F07573005F655055425F54494D45525F46B1
S2140033004545444241434B007465737400746573CD
S2140033107400636F64657300706C6F74206D617405
S21400332063682E2E2E2E2E2E2E2E2E2E2E2E2E2E49
S2140033302E2E2E2E2E2E2E2E2E2E2E2E2E2E2E2EA8
S2140033402E2E2E2E2E2E2E2E2E2E2E2E2E2E2E2E98
S2140033502E2E2E2E2E2E2E2E007374617475730054
S214003360704E6F0043616C6962726174696F6E20A3
S2140033706F7665722072756C65640043616C696275
S214003380726174696F6E20746F706963206765740C
S2140033902066726F6D207365727665720043616C8D
S2140033A06962726174696F6E0053432053544152D0
S2140033B0542046524F4D203A200054414E4B204454
S2140033C075726174696F6E3A200054414E4B206FDF
S2140033D06E2061667465723A200054414E4B204E52
S2140033E04F3A200054414E4B20535441543A20004B
S2140033F05343204E554D203A20005343206F6E20F5
S2140034006F66662054696D65203A2000534320534A
S214003410544154203A2000546E4F6600546E4F6E4E
S21400342000546E4E6F00546E5374004765742054FB
S214003430616E6B5F5363686564756C652066726F5A
S2140034406D20536572766572005343205354415481
S214003450203A2000536353746174005343206F6E08
S214003460206F66662054696D65203A200053634FCE
S2140034706E005343204E554D203A200053634E7540
S2140034806D0053634F66660053634F6E0053656E60
S214003490005363686564756C6520746F706963209B
S2140034A06765742066726F6D20736572766572202C
S2140034B03A2000736D7320616C657274206F6666C7
S2140034C000736D7320616C657274206F6E00736D8F
S2140034D073006465766963654E756D626572006635
S2140034E061726D65724E756D62657200666F7263AD
S2140034F0652073746F7020726573756D6520746FC8
S214003500706963203A2000666F7263652073746F7B
S2140035107020746F706963203A2000726573756D51
S21400352065207363686564756C6520746F70696385
S214003530203A200070617573652073636865647552
S2140035406C6520746F706963203A2000504C4F54AD
S2140035505F4E554D00657874726120706C6F7420F4
S21400356064656C65746520746F706963203A20002A
S21400357053434845445F4E554D0073636865647514
S2140035806C6520706C6F742064656C65746520745F
S2140035906F706963203A2000504C4F545F4E554D73
S2140035A000706C6F742064656C65746520746F7051
S2140035B06963203A200076616C76652049443A209B
S2140035C00056414C56452064656C657465206672ED
S2140035D06F6D20506C6F74206E6F2E3A20007661EF
S2140035E06C76652049443A200076616C7665204EFC
S2140035F04F3A200056414C564520444154412047FE
S21400360045542046524F4D2053455256455200765B
S21400361049640076616C76652064656C6574652027
S214003620746F706963203A2000636F646500706C85
S2140036306F742073656C203A20006D6178203A2004
S214003640006D696E203A200073656C5F706C6F7455
S214003650006D6178006D6178006D696E006D696E51
S2140036600056414C5645204E4F203A20004578746F
S214003670726120506C6F74204E756D6265722E3AC2
S214003680200073656E736F722064617461206765D5
S214003690742066726F6D207365727665720076614F
S2140036A06C76652049443A200056414C5645204EDB
S2140036B04F203A200076616C766520353A200076F9
S2140036C0616C766520343A200076616C766520332E
S2140036D03A200076616C766520323A200076616C7E
S2140036E0766520313A200053656E736F72204E6FF8
S2140036F02E3A200073656E736F72206461746120C9
S2140037006765742066726F6D2073657276657200E9
S2140037106F704D6F64650076616C76652033206F40
S21400372066206575726F20636F6E74726F6C6C6561
S214003730720076616C76652032206F662065757241
S2140037406F20636F6E74726F6C6C65720076616C5E
S21400375076652031206F66206575726F20636F6E08
S21400376074726F6C6C657200776972656C657373E2
S2140037702070756D702044415441204745542046C2
S214003780524F4D20534552564552006E657720766F
S214003790616C766520706F736974696F6E20007651
S2140037A0616C7665206973206E6F7420696E207474
S2140037B06865206C6973740073656C656374206655
S2140037C0726F6D206C6973740076616C7665203359
S2140037D0206F66206575726F20636F6E74726F6CF3
S2140037E06C65720076616C76652032206F662065A7
S2140037F075726F20636F6E74726F6C6C6572007694
S214003800616C76652031206F66206575726F206367
S2140038106F6E74726F6C6C65720076616C76652084
S21400382033206F66206575726F20636F6E74726FDB
S2140038306C6C65720076616C76652032206F66204F
S2140038406575726F20636F6E74726F6C6C65720054
S21400385076616C76652031206F66206575726F2004
S214003860636F6E74726F6C6C65720076616C7665F1
S2140038702033206F66206575726F20636F6E7472DA
S2140038806F6C6C65720076616C76652032206F66B0
S214003890206575726F20636F6E74726F6C6C6572E4
S2140038A00076616C76652031206F66206575726FD4
S2140038B020636F6E74726F6C6C65720076616C76E6
S2140038C0652033206F66206575726F20636F6E7497
S2140038D0726F6C6C6572206E65770076616C7665CB
S2140038E02032206F66206575726F20636F6E74726B
S2140038F06F6C6C6572206E65770076616C766520FD
S21400390031206F66206575726F20636F6E74726FFC
S2140039106C6C6572206E65770076616C7665204902
S214003920443A200076616C7665204E4F3A20005669
S214003930414C564520444154412047455420465268
S2140039404F4D20534552564552006E65772076619E
S2140039506C766520706F736974696F6E200076618F
S2140039606C7665206973206E6F7420696E207468AB
S21400397065206C6973740073656C65637420667289
S2140039806F6D206C6973740076616C7665203320E9
S2140039906F66206575726F20636F6E74726F6C6CE5
S2140039A065720076616C76652032206F66206575DC
S2140039B0726F20636F6E74726F6C6C6572007661E6
S2140039C06C76652031206F66206575726F20636F98
S2140039D06E74726F6C6C65720076616C76652033FF
S2140039E0206F66206575726F20636F6E74726F6CE1
S2140039F06C65720076616C76652032206F66206595
S214003A0075726F20636F6E74726F6C6C6572007681
S214003A10616C76652031206F66206575726F206355
S214003A206F6E74726F6C6C65720076616C7665355D
S214003A300076616C7665340076616C766533007668
S214003A40616C7665320076616C76653100704E6F1B
S214003A500053657420636F656666656369656E749A
S214003A6020546F7069632066726F6D20736572767E
S214003A7065720049727269676174696E6720706C5E
S214003A806F740050554D502052554E2054494D45A8
S214003A9052007400704E6F006765742054494D459F
S214003AA0522066726F6D2073657276657200476588
S214003AB07420436F6E74726F6C6C6572206973202D
S214003AC07265676973746572656420746F205365E8
S214003AD076657220546F706963006D7174745F63ED
S214003AE0616C6C6261636B5F66756E6374696F6E42
S214003AF02032006D7174745F63616C6C6261636B1D
S214003B005F66756E6374696F6E2031004C6F72610C
S214003B102044617461205265636976656400416C77
S214003B206C2076616C76657320737563636573735A
S214003B3066756C6C79204F4E2F4F46460045757261
S214003B406F20466565646261636B206661696C2FF1
S214003B504E6F7420726563656976656420616E7960
S214003B6020646174612066726F6D204575726F20E7
S214003B7076616C76652030004575726F2046656507
S214003B80646261636B206661696C2F4E6F7420728D
S214003B906563656976656420616E79206461746129
S214003BA02066726F6D204575726F2076616C766543
S214003BB02031004575726F20466565646261636BEF
S214003BC0206661696C004944204E6F74206D6174F4
S214003BD06368656420776974682076616C76652012
S214003BE07768696368206973207265706C696564BC
S214003BF0004575726F2076616C76652049442077A3
S214003C00686963682069732053656E74203A0045BE
S214003C1075726F2076616C766520727820646174A8
S214003C2061203A200053656E64204F6E2F6F6666E3
S214003C3020436F6D6D616E6420746F204555524F42
S214003C402076616C766520310043757272656E74FD
S214003C502076616C7665206E756D62657220005701
S214003C606972656C6573732056616C7665206E6F3D
S214003C702E200049727269676174696E6720706CE5
S214003C806F74206E6F203A2000200076616C766597
S214003C90206C697374203A2000416C6C2076616C4D
S214003CA0766573207375636365737366756C6C797C
S214003CB0204F4E2F4F4646004575726F204665656D
S214003CC0646261636B206661696C2F4E6F7420724C
S214003CD06563656976656420616E792064617461E8
S214003CE02066726F6D204575726F2076616C766502
S214003CF02030004575726F20466565646261636BAF
S214003D00206661696C2F4E6F7420726563656976F4
S214003D10656420616E7920646174612066726F6DDF
S214003D20204575726F2076616C766520310045758A
S214003D30726F20466565646261636B206661696CBC
S214003D40004944204E6F74206D617463686564207A
S214003D50776974682076616C766520776869636831
S214003D60206973207265706C696564004575726FB2
S214003D702076616C76652049442077686963682000
S214003D8069732053656E74203A004575726F20760D
S214003D90616C76652072782064617461203A200038
S214003DA053656E64204F6E2F6F666620436F6D6D91
S214003DB0616E6420746F204555524F2076616C7694
S214003DC06520310043757272656E742076616C767C
S214003DD065206E756D6265722000576972656C6548
S214003DE073732056616C7665206E6F2E20004972C4
S214003DF07269676174696E6720706C6F74206E6F8D
S214003E00203A2000200076616C7665206C69737419
S214003E10203A200076616C7665206661696C2074B5
S214003E206F206769766520666565646261636B28E6
S214003E304E6F74206C697374656E696E67292E2EDA
S214003E402E0076616C7665206964206E6F74206D36
S214003E5061746368286265666F7265207374617248
S214003E60747429006661696C20746F206F66662022
S214003E707468652076616C76652877617320656165
S214003E806C696572206F6E6E290054657374206FBE
S214003E906E6C792054582064617461203A20005377
S214003EA0656E64204F6E2F6F666620436F6D6D6182
S214003EB06E6420746F204555524F2076616C76658F
S214003EC0203B00436865636B2076616C76652074E2
S214003ED068617420616C6C2076616C766573206115
S214003EE07265204F4646206F72206E6F74007661B2
S214003EF06C7665206661696C20746F206F6666203C
S214003F0077686963682077617320616C72656164A5
S214003F1079206F6E0076616C7665206964206E6F1E
S214003F2074206D61746368286265666F72652073BD
S214003F307461727429006661696C20746F206F6604
S214003F4066207468652076616C76652877617320D4
S214003F5065616C696572206F6E2900546573742004
S214003F606F6E6C792054582064617461203A20008A
S214003F7053656E64204F6E2F6F666620436F6D6DBF
S214003F80616E6420746F204555524F2076616C76C2
S214003F90652000436865636B2076616C76652074E7
S214003FA068617420616C6C2076616C766573206144
S214003FB07265204F4646206F72206E6F74007661E1
S214003FC06C7665206C69737420656E74657220006B
S214003FD076616C7665206C697374206973203A206C
S214003FE00076616C7665206C69737420656E746506
S214003FF072200076616C7665206C69737420697334
S214004000203A200049727269676174696F6E206693
S21400401061696C20746F2053746F70004972726906
S214004020676174696F6E2053746F707300497272A3
S21400403069676174696F6E2053746F707300776C74
S21400404020312070756D7020747269676765722004
S214004050323232323232323232323232323232323B
S214004060323232323232320054727920746F207318
S214004070746F702049727269676174696F6E004967
S214004080727269676174696F6E206661696C20532D
S214004090746172740049727269676174696F6E2028
S2140040A053746172740049727269676174696F6EE5
S2140040B0206661696C20537461727400776C2031DD
S2140040C02070756D7020747269676765722066610E
S2140040D0696C20746F206F6E00776C2031207075CD
S2140040E06D702074726967676572206F6E00776CFA
S2140040F020312070756D7020747269676765722054
S214004100313131313131313131313131313131319A
S214004110313131310054727920746F2053746172DA
S21400412074205468652049727269676174696F6E9D
S214004130004D6F64653A205363686564756C6572FC
S214004140202C2049727269676174696F6E004D6F2A
S21400415064653A205363686564756C6572206D6F9C
S2140041606465202C204F7065726174696F6E2053F1
S21400417074617274004D6F64653A2054696D65729F
S214004180204D6F64652C206B696C6C2073776974A6
S2140041906368207468726F75676820617070004D80
S2140041A06F64653A2054696D6572204D6F64652CA6
S2140041B02049727269676174696F6E2052656C611E
S2140041C0746564204661756C74206F636375722035
S2140041D033004D6F64653A2054696D6572204D6FEB
S2140041E064652C2049727269676174696F6E20522B
S2140041F0656C61746564204661756C74206F6363DA
S21400420075722032004D6F64653A2054696D657290
S214004210204D6F64652C2049727269676174696FFE
S2140042206E2052656C61746564204661756C7420FE
S2140042306F636375722031004D6F64653A20546970
S2140042406D6572204D6F64652C20497272696761D6
S21400425074696F6E2052656C617465642046617582
S2140042606C74206F636375722030004D6F64653A1E
S2140042702054696D6572204D6F6465202C2054694A
S2140042806D65204F7665720050756D702052756EA4
S2140042902054696D657220696E2054696D657220C0
S2140042A03A20004D6F64653A2054696D6572204D62
S2140042B06F6465202C2054696D6572206D6F64658F
S2140042C020686173206265656E206661696C65644E
S2140042D02064756520746F206E6F7420737461722D
S2140042E0742073746F7020302E31004D6F64653A01
S2140042F02054696D6572204D6F6465202C205469CA
S2140043006D6572206D6F64652068617320626565F7
S2140043106E206661696C65642064756520746F2024
S2140043206E6F742073746172742073746F702030B3
S2140043302E31004D6F64653A2054696D6572204DCC
S2140043406F6465202C2049727269676174696F6EAC
S214004350206661696C7320746F2073746F702062BE
S21400436075742072756E20666F72206E6578742084
S214004370706C6F7420004D6F64653A54696D657299
S214004380204D6F6465202C204F7065726174696FD4
S2140043906E205374617274004D6F64653A204175E7
S2140043A0746F204D6F64652C206B696C6C2073777E
S2140043B069746368207468726F75676820617070CE
S2140043C000666F67676572206F6E20497272696754
S2140043D06174696F6E2073746F7073004D6F6465DF
S2140043E03A204175746F204D6F64652C497272696E
S2140043F0676174696F6E2052656C617465642046EF
S21400440061756C74206F63637572004D6F64653AF6
S214004410204175746F204D6F6465202C20476F69AE
S2140044206E6720546F205374617274004D6F64651C
S2140044303A204175746F204D6F6465202C204972B8
S2140044407269676174696F6E206661696C73207447
S2140044506F2073746F70004D6F64653A20417574F9
S2140044606F204D6F6465202C204F706572617469F3
S2140044706F6E205374617274004D6F64653A204D00
S214004480616E75616C202C2049727269676174696F
S2140044906F6E206661696C7320746F2073746F7022
S2140044A0004D6F64653A204D616E75616C207365D2
S2140044B06C65637465642C20204F70657261746946
S2140044C06F6E205374617274004175746F204D6F67
S2140044D064652073656C6563746564005363686522
S2140044E064756C65722073656C6563746564004DF5
S2140044F0616E75616C204D6F64652073656C6563D5
S214004500746564005363686564756C6572207365D2
S2140045106C6563746564004D616E75616C204D6FEB
S21400452064652073656C6563746564004D616E75C3
S214004530616C204D6F64652073656C65637465649B
S214004540007363686564756C65204175746F204DF3
S2140045506F64652073656C65637465640053636897
S2140045606564756C65722073656C6563746564005C
S21400457054696D6572204D6F64652073656C656364
S2140045807465640054696D6572204D6F64652073B0
S214004590656C65637465640044617461204C6F6784
S2140045A0676572204D6F64652073656C656374651E
S2140045B064007363686564756C65204175746F206C
S2140045C04D6F64652073656C6563746564004D614A
S2140045D06E75616C204D6F64652073656C656374E1
S2140045E065640000000A0B02090C0D0E08070304A0
S2140045F001000000000000000000000000000000B5
S2140046000000000000000000000000000000001293
S2140046101110000000000000000000000000000074
S2140046200000000000000000000102102020080822
S21400463010204010204080020102010804020101FF
S21400464002040810204080804020100804020180E8
S214004650040201804020100804020108040201013F
S2140046600204081020408001020408102040800543
S214004670050505070508080808020202020A0A08D6
S21400468008040404040101010101010101030303FC
S2140046900303030303040707070C0C0C0C0C0C0C99
S2140046A00C0202020206060606060606060B0B0BA0
S2140046B00B0B0B0B0B000020002300260029002C00
S2140046C0002F00320000010000030106010901006E
S2140046D0002200250028002B002E003100340002A6
S2140046E0010000050108010B01000021002400273D
S2140046F0002A002D003000330001010000040107ED
S214004700010A0172740492740448940478C40C720A
S214004710B404096886D4DCD438DDEEE211241FBE6A
S214004720CFEFD1E2DEBFCDBF00E00CBF19E0A0E0C6
S214004730B2E0EEE1F2EE01E00BBF02C007900D9290
S214004740A631B107D9F729E1A6E1B9E001C01D926B
S214004750AA32B207E1F713E2CEE8D3E200E006C0E1
S21400476021970109802FFE010E94D3EBC938D1079B
S21400477080E00807A9F70E94C7840C940DF10C94FA
S2140047800000DC01ED91FC910280F381E02D19948C
S214004790FF920F931F93CF93DF93EC01F62E0881C1
S2140047A01981C8010E94F1F0F81621F06F2DC8019A
S2140047B00E94F9F0CE01DF91CF911F910F91FF90EB
S2140047C008950F931F93CF93DF931F921F92CDB739
S2140047D0DEB78B01FB0160819A838983CE01019647
S2140047E0D7DFC8010F900F90DF91CF911F910F91E7
S2140047F00895EF92FF920F931F93CF93DF931F922C
S2140048001F92CDB7DEB78BE9E82E84E1F82E0DEACD
S2140048101EE0F70161917F011A830983CE0101969C
S214004820B7DF0F5F1F4F013BFEE01F0791F78BE9D5
S21400483094E10F900F90DF91CF911F910F91FF9011
S214004840EF90089581E008958091C10E8D3609F0AD
S2140048507CC08091C00E882309F456C08091C50E96
S214004860863631F0873641F0853641F482E001C065
S21400487083E0809398142DC084E0FBCF82E0809381
S21400488098148091AC14813021F563EC78E087ECC5
S21400489094E10E9464D54AE050E06091C50E87EC32
S2140048A094E10E94E0D587EC94E10E94D3D369EAB4
S2140048B078E087EC94E10E9464D54AE050E060918D
S2140048C0981487EC94E10E94E0D587EC94E10E946E
S2140048D0D3D380917B14811146C08091AC14813073
S2140048E051F46DE778E087EC94E10E9464D587EC9C
S2140048F094E10E94D3D383E080937B146BE774E14A
S21400490088EA9CE05EDF2FC081E080939814809157
S2140049107B14882309F448C08091AC14813051F48C
S21400492062E578E087EC94E10E9464D587EC94E138
S2140049300E94D3D310927B146BE774E188EA9CE064
S21400494040DF85E00E943BAF0EC081E08093981464
S21400495080917B14882341F18091AC14813051F70B
S21400496061E478E0DFCF809198148230D8F08091AF
S2140049707B14811132C08091AC14813051F460E315
S21400498078E087EC94E10E9464D587EC94E10E947D
S214004990D3D383E080937B146BE774E188EA9CE0D2
S2140049A010CF08958130C9F480917B148823A9F034
S2140049B08091AC14813051F46FE178E087EC94E19B
S2140049C00E9464D587EC94E10E94D3D310927B14A6
S2140049D06BE774E188EA9CE0F4CE0895E9E5FEE032
S2140049E02EE53EE080E0919191118F5F2E173F07F4
S2140049F0D1F780931A09823018F481E08093EB0C8B
S214004A008091E80B9091E90B8134984330F080E474
S214004A1098E39093E90B8093E80B8091EA0B9091D2
S214004A20EB0B8538934030F084E893E09093EB0BE3
S214004A308093EA0B80911909893220F010921909A7
S214004A40D8DE03C08F5F809319098091550E893692
S214004A5009F038C18091D513823009F4F9C08091ED
S214004A60A5149091A614892B09F02CC168EE72E06B
S214004A7087EC94E10E9464D540919B1450919C145D
S214004A8060919D1470919E142AE030E087EC94E1CA
S214004A900E94CED587EC94E10E9460D587EC94E125
S214004AA00E94D3D38091E80B9091E90BA0E0B0E090
S214004AB040919B1450919C1460919D1470919E148B
S214004AC084179507A607B70708F0FCC080916D0EFF
S214004AD0813009F068C080919F149091A014892BB2
S214004AE0F9F08091AC14813051F466ED72E087ECF9
S214004AF094E10E9464D587EC94E10E94D3D3809120
S214004B00AC13811113C18091E80B9091E90B892BAE
S214004B1009F40CC180917014813009F0D3C006C12D
S214004B208091D513833049F48091C6139091C713B2
S214004B3088609093C7138093C61384E00E9420CAAF
S214004B4080916D0E882309F47DC08091C6139091E4
S214004B50C71390629093C7138093C61384E0809324
S214004B60721482E080936E0E10926D0E10921809E9
S214004B701092170991E0909316098091EB0C209102
S214004B801A09821758F09093EB0C10929B1410920F
S214004B909C1410929D1410929E1403C08F5F8093F5
S214004BA0EB0C27DE4FC09091540E9111BDC02091A2
S214004BB0E80B3091E90B232B09F4B6C090911E1434
S214004BC0911103C0882309F481C080919814813024
S214004BD009F01AC180917014813009F442C18091A5
S214004BE0D513853009F42DC184E00E9464C988235A
S214004BF009F4DAC08091AC14813051F462EB72E0B3
S214004C0087EC94E10E9464D587EC94E10E94D3D3AC
S214004C108091EA0B9091EB0B9093A01480939F14D5
S214004C208091C6139091C71390629093C713809398
S214004C30C61384E08093721482E080936E0E81E047
S214004C4080936D0E6BEE7CE087EB9EE0BADD3AC09B
S214004C5080919F149091A014892B21F480916D0E61
S214004C608823A1F11092A01410929F1484E00E9451
S214004C7020CA80916D0E882309F18091C613909109
S214004C80C71390629093C7138093C61384E08093F3
S214004C90721482E080936E0E10926D0E10921809B8
S214004CA01092170981E08093160910929B141092B7
S214004CB09C1410929D1410929E149BDD1092A814C2
S214004CC01092A71480916D0E81111DC08091160957
S214004CD08823C9F080911709909118098D339105A2
S214004CE068F0109218091092170964E080E00E949C
S214004CF08FBA882341F01092160905C0019690934A
S214004D001809809317098091EB0C882321F0909165
S214004D101A09981740F481E08093EB0C6BEE7CE068
S214004D2087EB9EE04ECD089581E008956BEE7CE023
S214004D3087EB9EE046DD8091AC14813051F464EC44
S214004D4072E087EC94E10E9464D587EC94E10E94BF
S214004D50D3D38091AC13882331F088E592E090930A
S214004D60A6148093A51484E00E9420CA80916D0E3C
S214004D70882309F4ABCF8091C6139091C713906235
S214004D809093C7138093C61384E08093721482E0D6
S214004D9080936E0E10926D0E1092180910921709DD
S214004DA081E0809316092EC088E592E09093A614C1
S214004DB08093A51484E00E9420CA80916D0E8823FB
S214004DC009F484CF8091C6139091C7139062909394
S214004DD0C7138093C61384E08093721482E0809396
S214004DE06E0E10926D0E109218091092170981E03F
S214004DF08093160910929B1410929C1410929D1486
S214004E0010929E14F6DC5ECF823008F4E8CE90E076
S214004E1002972BE0289FF001299FF00D1124EC50FB
S214004E20F44F808591859C0123703327233031050C
S214004E30C1F482FF16C0887B9270892B09F4CFCE0E
S214004E4010C08091220990912309892B09F4CCCEB9
S214004E50809122099091230944969093A6148093FA
S214004E60A51480E008952F923F924F925F926F9222
S214004E707F928F929F92AF92BF92CF92DF92EF92E5
S214004E80FF920F931F93CF93DF93CDB7DEB7E997CB
S214004E900FB6F894DEBF0FBECDBF782E6BAB88E0A2
S214004EA0E3E6F2E0DE019B9601900D928A95E1F72B
S214004EB09E012F5F3F4F29018AE2D9011D928A95F4
S214004EC0E9F72EE4A22E2DE0B22E22EA3DE065019F
S214004ED0F12CF601808181508E30D8F5D60165E040
S214004EE089818823F9F010E070E0872F90E0A20116
S214004EF0480F591FFA0150815523D1F011964C9155
S214004F001197442369F0541799F042E050E04C0F93
S214004F105D1F840F951FFC018081811101C011E087
S214004F207F5FE3CF11968C911197811103C00DC05E
S214004F30112359F011964C911197433130F4C20168
S214004F408F0D911DFC014083F39461501196611101
S214004F50C7CFF6E0CF0ED11C2C153D0509F0B9CF12
S214004F608091AC14813059F56EE078E087EC94E1DE
S214004F700E9464D587EC94E10E94D3D3E12C820191
S214004F800E0D111DD8018C918823C9F06CEF77E0C7
S214004F9087EC94E10E9464D5F801608170E04AE0F5
S214004FA050E087EC94E10E945AD687EC94E10E9488
S214004FB060D587EC94E10E94D3D3E394E0CFFBA9BD
S214004FC0F33009F07DC098EEC92E9DE0D92E22E67A
S214004FD03FE0D60111968C91119785568E30D0F50C
S214004FE065E089818823F9F010E070E0872F90E073
S214004FF0A201480F591FFA0150815523D1F015968A
S2140050004C911597442369F0541799F042E050E00C
S2140050104C0F5D1F840F951FFC018081811101C01C
S21400502011E07F5FE3CF15968C911597811103C031
S2140050300DC0112359F015964C911597433130F455
S214005040C2018F0D911DFC014083F39461501196AF
S2140050506111C7CFFBE1CF0ED11C2C153D0509F021
S214005060B8CF8091AC148130E9F56BEE77E087EC31
S21400507094E10E9464D587EC94E10E94D3D3F12C8E
S21400508082010F0D111DD8018C918823E9F069ED7E
S21400509077E087EC94E10E9464D5F801608170E0C7
S2140050A04AE050E087EC94E10E945AD687EC94E1FF
S2140050B00E9460D587EC94E10E94D3D3F394E0CFAE
S2140050C08BA9853009F09BC18091AC14813051F4D6
S2140050D06EEA77E087EC94E10E9464D587EC94E171
S2140050E00E94D3D305E11CE0B4E0CB2ED12CE12CFA
S2140050F0F12C8DE0282ED8018C91882321F1312CBB
S21400510040E039C09E01255D3F4F3DAB2CAB992456
S2140051109394A7014F5F5F4F5FAB4EAB2E9CC001D1
S2140051202F9C900D1124DC01AB5EB34FB9AFA8AF36
S214005130ECA9FDA98191FDABECAB832149F59394D5
S214005140F4E09F12F5CFBFEFEB1AFB0A035F1F4F89
S214005150E3E0CE0ED11CF5E0EF16F10461F602C1D5
S2140051608217930711F45081352A01963196C81696
S214005170D906B1F74F5FF201E40FF11D208122231B
S21400518009F4C0CFC6010397FE01BB9630E0E8CF16
S214005190812C8394A5EFB3E1E4E11D92EA95E9F74B
S2140051A0D80111968C9111978093F51312968C91D5
S2140051B012978093F61313968C9113978093F71398
S2140051C014968C9114978093F81315968C911597D6
S2140051D08093F91316968C918093FA13B2E0B093ED
S2140051E0FB138091D5138093FD1390920014809149
S2140051F0AC14813039F56BE877E087EC94E10E94D7
S21400520033D54AE050E06EA97FA987EC94E10E946E
S21400521060D687EC94E10E94D3D366E777E087EC0C
S21400522094E10E9433D54CE050E065EF73E187ECE3
S21400523094E1A7DA87EC94E10E9460D587EC94E1CC
S2140052400E94D3D30E94346D8CE00E9418680E949E
S21400525027738823A1F00E943166882381F0E0ED51
S214005260FFE001900020E9F73197AF01405D5F4015
S21400527021E060ED7FE082E69FE00E94099488EBE3
S2140052809BE00E942C66882309F459C00E94FA65A8
S2140052900E9427738823A1F00E943166882381F03C
S2140052A0E0EDFFE001900020E9F73197AF01405DA7
S2140052B05F4021E060ED7FE082E69FE00E94099477
S2140052C090E080E0282F30E0E8ADF9ADE20FF31F64
S2140052D0D901A75FBB4E41812C91421711F090E097
S2140052E086E09F5F8F5F863068F39630C9F481E072
S2140052F0F80183872091111422878091121490E080
S214005300982F882730911314832B91878087222328
S214005310E9F08091AC148130D9F461E577E006C0FD
S2140053208091AC148130A1F460E377E087EC94E1DF
S2140053300E9464D587EC94E10E94D3D309C0809183
S214005340AC14813029F469E077E0F0CFE3E08E2EEC
S21400535068EE73E080E090E00E94C5D7F3E08F121D
S21400536018CFEDCE2BA9233011F40C9469322530DA
S21400537009F045C07EE0F72E00E010E0F501E00FF2
S214005380F11FE181E33168F0F0E0E75CFB4E61E09D
S21400539080810E94FED868EC70E080E090E00E9479
S2140053A0C5D70F5F1F4F0530110541F7FA9436E059
S2140053B0A30EB11CF110E0CF80913A0E883611F0A2
S2140053C00C9469320EE31EE063E4E62E6EE0F62EE1
S2140053D0D801ED918D01E33168F0F0E0E75CFB4E1B
S2140053E061E080810E94FED868EC70E080E090E08A
S2140053F00E94C5D7E016F10659F70C946932BBA98E
S214005400B13009F049C18091AC14813051F46EED91
S21400541076E087EC94E10E9464D587EC94E10E94E4
S214005420D3D305E11CE044E0A42EB12CE12CF12CF2
S2140054305DE0852EF8018285882301F1912C40E0FD
S21400544035C0AE01455D5F4F1A01DD24D394C70118
S21400545001969DAB8CAB8E9CC0018F9C900D112449
S214005460DC01AB5EB34FBFABAEABF10181911F0168
S214005470892141F5D394F4E0DF12F7CFFFEFEF1A5E
S214005480FF0A035F1F4F23E0A20EB11C36E0E316AF
S214005490F10481F605C12817390711F45081952AC1
S2140054A001963196A816B906B1F74F5FF201E40FE0
S2140054B0F11D2081222329F2C5010397FE01BB9628
S2140054C030E0E9CFC12CC394A5EFB3E1E4E11D922F
S2140054D0EA95E9F7D80111968C9111978093F51308
S2140054E012968C9112978093F61313968C911397BD
S2140054F08093F71314968C9114978093F81315964F
S2140055008C9115978093F91316968C918093FA13C5
S214005510B2E0B093FB138091D5138093FD13D09225
S21400552000148091AC14813039F56AEB76E087EC94
S21400553094E10E9433D54AE050E06CA97DA987EC3F
S21400554094E10E9460D687EC94E10E94D3D365EA8A
S21400555076E087EC94E10E9433D546E050E065EFB4
S21400556073E187EC94E10DD987EC94E10E9460D555
S21400557087EC94E10E94D3D30E94346D8CE00E94A5
S21400558018680E9427738823A1F00E94316688233A
S21400559081F0E0EDFFE001900020E9F73197AF01E0
S2140055A0405D5F4021E060ED7FE082E69FE00E9484
S2140055B0099488EB9BE00E942C66882309F459C066
S2140055C00E94FA650E9427738823A1F00E94316624
S2140055D0882381F0E0EDFFE001900020E9F73197A5
S2140055E0AF01405D5F4021E060ED7FE082E69FE036
S2140055F00E94099490E080E0282F30E0EEA9FFA9F1
S214005600E20FF31FD901A75FBB4E41812C914217D1
S21400561011F090E086E09F5F8F5F863068F39630EB
S214005620C9F481E0F80183872091111422878091C4
S214005630121490E0982F882730911314832B9187AB
S21400564080872223E9F08091AC148130D9F46FE78B
S21400565076E006C08091AC148130A1F46DE576E06A
S21400566087EC94E10E9464D587EC94E10E94D3D342
S21400567009C08091AC14813029F46FE276E0F0CF57
S21400568023E0C22E68EE73E080E090E00E94C5D76B
S214005690F3E0CF1218CFEECE2BA9223008F018C7B1
S2140056A08091AC143EE0371508F4B4C346E0749E0F
S2140056B0800111248130D9F561E276E087EC94E12F
S2140056C00E9464D587EC94E10E94D3D3E12CF12CA0
S2140056D0C72CD12C51E0C51AD108F701E00FF11FF5
S2140056E0E75BF24F4AE050E0608187EC94E10E946D
S2140056F0DAD56FE176E087EC94E10E9433D58FEF40
S214005700E81AF80A95E0E916F10439F764E076E05D
S21400571087EC94E10E9433D54AE050E0B60187EC6E
S21400572094E10E9460D687EC94E10E94D3D3075B95
S214005730124FB5E02B2E80E0E72CF12CA1E0EA1A00
S214005740F1089BA9B1E09B2791709EAB90EDA92E26
S2140057509FE0B92EEBA9E1111FC020911E1472160E
S214005760C9F02223C9F0D8019C91B6E02B9F900186
S214005770112440E050E080E0FA01E20FF31FE75BFF
S214005780F24F6081961301C081E04F5F5F4F453056
S214005790510591F781112EC3F801D0808FEF8D0D42
S2140057A0823108F0FBC2F3E0FD15A8F48D2D63E00E
S2140057B00E9462EB6BEAD69E612D1124992331F08C
S2140057C06695CC24C394C60ED92E07C0C62EC694A2
S2140057D0A3E0DA2E02C0CC24C3948091AC148130AE
S2140057E089F460EF75E087EC94E10E9433D54AE0D7
S2140057F050E06C2D87EC94E10E94E0D587EC94E1B4
S2140058000E94D3D30E94F66581110E94FA6584E156
S214005810E5EFF3E1DF011D928A95E9F76C2D70E064
S21400582061507109B7E0B69FC001B79F900D112473
S21400583082559C4EFC01EC58FF4F20812093F513B7
S214005840319620812093F613319620812093F7130A
S214005850319620812093F813319620812093F913F6
S214005860319620812093FA1322E02093FB13EBA9B4
S214005870E093FC132091D5132093FD132091C413BD
S2140058802093FF13D092001440E050E0942EC12CD9
S214005890D12CFDE0F49FB001F59F700D11246B5ED6
S2140058A0734F2D2D30E0FB01E20FF31F280F391F39
S2140058B0D901AC58BF4F31812C91321719F0C12C49
S2140058C0F6E0DF2EC394D39425E02D1550F736E08E
